:0300000002094FA3
:0C094F00787FE4F6D8FD75811602099649
:0F0AEB000A08C0F9A4B0999282F8809001120015
:0F0AB6008475F00A84E5F0FD7C00120B0A7F0ABC
:100AC500E4FDFCC3ED9FEE6480F8EC64809850155E
:100AD500E4FAFB0BBB00010AEB64644A70F50DBD3B
:050AE50000010C80DEA1
:010AEA0022E9
:10080000D2A0D2A1D2A2D2A3C2A4D2A5D2A6D2A74C
:1008100030A00930A10630A20320A3377F0A7E0052
:10082000120AC530A00930A10630A20320A3182067
:10083000A00375120120A10375120220A2037512F4
:100840000320A30375120430A0FD30A1FA30A2F7F3
:1008500030A3F4D2A0D2A1D2A2D2A3D2A4C2A5D254
:10086000A6D2A730A00930A10630A20320A3377F6B
:100870000A7E00120AC530A00930A10630A203206A
:10088000A31820A00375120520A10375120620A24B
:100890000375120720A30375120830A0FD30A1FADA
:1008A00030A2F730A3F4D2A0D2A1D2A2D2A3D2A474
:1008B000D2A5C2A6D2A730A00930A10630A203203B
:1008C000A3377F0A7E00120AC530A00930A1063086
:1008D000A20320A31820A00375120920A1037512FA
:1008E0000A20A20375120B20A30375120C30A0FD81
:1008F00030A1FA30A2F730A3F4D2A0D2A1D2A2D272
:10090000A3D2A4D2A5D2A6C2A730A00930A1063096
:10091000A20320A3377F0A7E00120AC530A0093047
:10092000A10630A20320A31820A00375120D20A158
:100930000375120E20A20375120F20A30375121067
:0F09400030A0FD30A1FA30A2F730A3F4AF12229D
:100A7F00EF24FE601114601414601A146020240413
:100A8F007024D2B0801AC2B0D2B18016C2B0C2B137
:100A9F00D2B2C2B322C2B0C2B1C2B2D2B322C2B0BA
:070AAF00C2B1C2B2C2B322C2
:0B0B0A00120A7F74082DF8E6F5802227
:100A30008F167E007C037DE81209DB7C007D0A12A4
:100A400009DB7F01120B0A7F0A7E00120AC5E51638
:100A500075F0647F02120AB6E51675F00A7F03127C
:100A60000AB6E51675F00A84E5F0FD7C007F0412F5
:0F0A70000AC0E4FDFC7F05120B0A7F0A020AC5CB
:0F0AFB00E4F513F514F515120800120A3080F80F
:10095B00020AFBE493A3F8E493A34003F68001F2AD
:10096B0008DFF48029E493A3F85407240CC8C3339D
:10097B00C4540F4420C8834004F456800146F6DF6C
:10098B00E4800B0102040810204080900AEBE47E07
:10099B00019360BCA3FF543F30E509541FFEE49361
:1009AB00A360010ECF54C025E060A840B8E493A328
:1009BB00FAE493A3F8E493A3C8C582C8CAC583CA53
:1009CB00F0A3C8C582C8CAC583CADFE9DEE780BE0B
:010AFA0000FB
:1009DB00BC000BBE0029EF8DF084FFADF022E4CC00
:1009EB00F875F008EF2FFFEE33FEEC33FCEE9DECC9
:1009FB00984005FCEE9DFE0FD5F0E9E4CEFD22ED0F
:100A0B00F8F5F0EE8420D21CFEADF075F008EF2F58
:100A1B00FFED33FD4007985006D5F0F222C398FD49
:050A2B000FD5F0EA22E6
:00000001FF
