:03000000020800F3
:0C080000787FE4F6D8FD758109020847F6
:0A0A4700C0F9A4B0999282F88090E3
:040A51000208000097
:1009A100EF24FB601314601914601F24037023E506
:1009B100A0541F4480F5A022E5A0541F44A0F5A037
:1009C10022E5A0541F44C0F5A022E5A0541F44E035
:0309D100F5A0226C
:100A0100AE077580FF7F061209A1AF057401A80723
:100A1100088002C333D8FCF5807F071209A18E80BC
:010A210022B2
:0A0A2200E493FF120A017FF47E0145
:0B0A2C00EF1FAC0670011E4C70F6229C
:10091700AE08AF097C007D0A12088C74472DF5825A
:10092700740A3CF5837D07120A22AE08AF097C00E2
:100937007D0A12088C7C007D0A12088C74472DF5FD
:1009470082740A3CF5837D06120A22AE08AF097C41
:10095700007D6412088C7C007D0A12088C74472D78
:10096700F582740A3CF583E493FF7D05120A25AEF0
:1009770008AF097C037DE812088C7C007D0A120809
:100987008C74472DF582740A3CF583E493FF7D044C
:0A099700120A017FF47E01020A2C0F
:1009D400C2B0D2B3D2B2D2B1D2B4D2B5D2C2D2C4DE
:1009E40020C40B30C4FD0509E5097002050820C2C6
:0D09F4000B30C2FDE509150970021508223F
:100A37007F041209A1E4F5801209171209D480F87E
:10080C00020A37E493A3F8E493A34003F68001F2C1
:10081C0008DFF48029E493A3F85407240CC8C333ED
:10082C00C4540F4420C8834004F456800146F6DFBC
:10083C00E4800B0102040810204080900A51E47EF1
:10084C00019360BCA3FF543F30E509541FFEE493B1
:10085C00A360010ECF54C025E060A840B8E493A378
:10086C00FAE493A3F8E493A3C8C582C8CAC583CAA3
:10087C00F0A3C8C582C8CAC583CADFE9DEE780BE5B
:010A550000A0
:10088C00C2D5EC30E709B2D5E4C39DFDE49CFCEE87
:10089C0030E715B2D5E4C39FFFE49EFE1208C2C335
:1008AC00E49DFDE49CFC80031208C230D507C3E430
:0608BC009FFFE49EFE22F6
:1008C200BC000BBE0029EF8DF084FFADF022E4CC1A
:1008D200F875F008EF2FFFEE33FEEC33FCEE9DECE3
:1008E200984005FCEE9DFE0FD5F0E9E4CEFD22ED29
:1008F200F8F5F0EE8420D21CFEADF075F008EF2F73
:10090200FFED33FD4007985006D5F0F222C398FD63
:050912000FD5F0EA2200
:00000001FF
