:10099C00021F0000021D00000815FEFDFBF7EFDF33
:1009AC00BF7F0A0BC0F9A4B0999282F8809001081D
:0709BC0000010900010A001F
:1009710020B203750801E508B4010A30B207E4F5B5
:1009810008C2A0D2A120B303750901E509B4010A87
:0B09910030B207E4F509C2A1D2A02299
:1009C400E4FDFCC3ED9FEE6480F8EC648098501560
:1009D400E4FAFB0BBB00010AEB64644A70F50DBD3D
:0509E40000010C80DEA3
:0109E90022EB
:10093A00EF24FE601114601414601A146020240459
:10094A007024D290801AC290D2918016C290C2911D
:10095A00D292C29322C290C291C292D29322C290E0
:07096A00C291C292C2932268
:0B0A1B0012093A740B2DF8E6F580225A
:10088C00AE1DAF1E7C037DE81208E5AC06AD077FFC
:10089C0001120A1BAE1DAF1E7C007D641208E57CA4
:1008AC00007D0A1208E57F02120A1BAE1DAF1E7CEA
:1008BC00007D0A1208E57C007D0A1208E57F031210
:1008CC000A1BAE1DAF1E7C007D0A1208E57F0412C8
:0908DC000A1BE4FDFC0F020A1BDB
:100A0B00758901758C3C758AAFD2A9D2AFD28C2275
:03000B000209EAFD
:1009EA00C0E0C0D0758C3C758AAF050AE50AB4141C
:1009FA000B750A00051EE51E7002051DD0D0D0E059
:010A0A0032B9
:080A2600120A0B12088C80FB80
:03000000020800F3
:0C080000787FE4F6D8FD758120020847DF
:1008E500BC000BBE0029EF8DF084FFADF022E4CCF7
:1008F500F875F008EF2FFFEE33FEEC33FCEE9DECC0
:10090500984005FCEE9DFE0FD5F0E9E4CEFD22ED05
:10091500F8F5F0EE8420D21CFEADF075F008EF2F4F
:10092500FFED33FD4007985006D5F0F222C398FD40
:050935000FD5F0EA22DD
:10080C00020A26E493A3F8E493A34003F68001F2D2
:10081C0008DFF48029E493A3F85407240CC8C333ED
:10082C00C4540F4420C8834004F456800146F6DFBC
:10083C00E4800B010204081020408090099CE47EA7
:10084C00019360BCA3FF543F30E509541FFEE493B1
:10085C00A360010ECF54C025E060A840B8E493A378
:10086C00FAE493A3F8E493A3C8C582C8CAC583CAA3
:10087C00F0A3C8C582C8CAC583CADFE9DEE780BE5B
:0109C3000033
:00000001FF
