:1009C7000110000308000000010B00010C00010EDC
:0409D70000010D000E
:10096900309006750F01E4F511E50FB4011D2090D3
:100979001A0511D3E511648094E4400FE4F51105DB
:0C09890010F50FE510B40A03E4F510228D
:1009DC00758901758C3C758AAFD2A9D2AFD28C22A5
:03000B000208D711
:1008D700C0E0C0D0758C3C758AAF050BE50BB4142E
:1008E70021750B00050CE50CB43C17750C00050EC3
:1008F700E50EB43C0D750E00050DE50DB418037536
:070907000D00D0D0D0E0325A
:10088C00E50C75F00A84ADF07F0112093CE50C759E
:10089C00F00A84FD7F0212093CE50E75F00A84AD66
:1008AC00F07F0412093CE50E75F00A84FD7F0512F9
:1008BC00093CE50D75F00A84ADF07F0712093CE5A3
:0B08CC000D75F00A84FD7F0802093C56
:10090E001209951209DC7F027E001209B1E4F5127C
:10091E00E51204FF7D0A12093C0512E512C3940884
:0E092E0040EE7FE87E031209B112088C80FBB8
:10093C00C2A1E4FEC2A2EF25E0FF92A0D2A2000069
:10094C00C2A20EBE08EEE4FEC2A2ED25E0FD92A00E
:0C095C00D2A20000C2A20EBE08EED2A182
:01096800226C
:100995007DFF7F0912093C7D077F0A12093C7D070F
:0C09A5007F0B12093C7D017F0C02093C15
:1009B100EF1FAA0670011E4A600BE4FDEDC3947897
:0509C10050EE0D80F76F
:0109C600220E
:03000000020800F3
:0C080000787FE4F6D8FD758112020847ED
:10080C0002090EE493A3F8E493A34003F68001F2EB
:10081C0008DFF48029E493A3F85407240CC8C333ED
:10082C00C4540F4420C8834004F456800146F6DFBC
:10083C00E4800B01020408102040809009C7E47E7C
:10084C00019360BCA3FF543F30E509541FFEE493B1
:10085C00A360010ECF54C025E060A840B8E493A378
:10086C00FAE493A3F8E493A3C8C582C8CAC583CAA3
:10087C00F0A3C8C582C8CAC583CADFE9DEE780BE5B
:0109DB00001B
:00000001FF
