:03000000020003F8
:0C000300787FE4F6D8FD75812202004AE7
:1000EE0001080002090000020B0000020D000010C2
:1000FE0013C0F9A4B0999282F880908883C6A18625
:07010E008E040FFEFDFBF75C
:0500C300C2A77590804A
:1000C800E4FDFCC3ED9FEE6480F8EC648098501565
:1000D800E4FAFB0BBB00010AEB64644A70F50DBD42
:0500E80000010C80DEA8
:0100ED0022F0
:1001350075A0FE7FC87E001200C875A0FD1200C81C
:0C01450075A0FB1200C875A0F70200C8EE
:10011600E4F583F582AF82740F2FF8E6F5A07FC869
:0E0126007E001200C8A3E5826404458370E7E2
:0101340022A8
:01015100228B
:10008F00D2A4C2A5C2A6C2A77590807FF47E01122A
:10009F0000C8C2A4D2A5C2A61200C3C2A4C2A5D2D0
:1000AF00A61200C3C2A4C2A5C2A6D2A77590801281
:0400BF0000C880CC29
:10000F0002008FE493A3F8E493A34003F68001F278
:10001F0008DFF48029E493A3F85407240CC8C333F2
:10002F00C4540F4420C8834004F456800146F6DFC1
:10003F00E4800B01020408102040809000EEE47E63
:10004F00019360BCA3FF543F30E509541FFEE493B6
:10005F00A360010ECF54C025E060A840B8E493A37D
:10006F00FAE493A3F8E493A3C8C582C8CAC583CAA8
:10007F00F0A3C8C582C8CAC583CADFE9DEE780BE60
:0101150000E9
:00000001FF
