:030000000209559D
:0C095500787FE4F6D8FD75810802096186
:10094300C0F9A4B0999282F880908880C6C0868E40
:02095300BF7F64
:1008F500EF24FB601314601914601F24037023E5B3
:10090500A0541F4480F5A022E5A0541F44A0F5A0E3
:1009150022E5A0541F44C0F5A022E5A0541F44E0E1
:03092500F5A02218
:07092800E50890094393FF6D
:10092F00AE077580FF7F061208F57580010F12085C
:04093F00F58E80228F
:10080000C2B0D2B3D2B2D2B1D2B4D2B5D2C2D2C4B3
:1008100020C40830C4FDE4F508801F20C20830C29F
:10082000FD750801801420B50830B5FD75080280FB
:100830000920B40930B4FD750803120928C2B1D2E9
:10084000B3D2B2D2B0D2B4D2B5D2C2D2C420C408CC
:1008500030C4FD750804801F20C20830C2FD750831
:1008600005801420B50830B5FD750806800920B450
:100870000930B4FD750807120928C2B2D2B3D2B14B
:10088000D2B0D2B4D2B5D2C2D2C420C40830C4FDD2
:10089000750808801F20C20830C2FD750809801441
:1008A00020B50830B5FD75080A800920B40930B4B8
:1008B000FD75080B120928C2B3D2B2D2B1D2B0D2A0
:1008C000B4D2B5D2C2D2C420C40830C4FD75080C5D
:1008D000801F20C20830C2FD75080D801420B508A5
:1008E00030B5FD75080E800920B40930B4FD7508D7
:0508F0000F120928228F
:0509610012080080FBFC
:00000001FF
