:03000000020003F8
:0C000300787FE4F6D8FD75811E02004AEB
:1001EA0001080002090000020B0000020D00000ACB
:1001FA0013C0F9A4B0999282F88090040FFEFDFB17
:01020A00F7FC
:0F01B5008475F00A84E5F0FD7C001202477F0A92
:1001C400E4FDFCC3ED9FEE6480F8EC648098501568
:1001D400E4FAFB0BBB00010AEB64644A70F50DBD45
:0501E40000010C80DEAB
:0101E90022F3
:10022B0075A0FE7FC87E001201C475A0FD1201C42B
:0C023B0075A0FB1201C475A0F70201C4FD
:10020C00E4F583F582AF82740F2FF8E6F5A07FC872
:0E021C007E001201C4A3E5826404458370E7EE
:01022A0022B1
:010252002289
:10017E00EF24FE601114601414601A14602024041D
:10018E007024D2A4801AC2A4D2A58016C2A4C2A57D
:10019E00D2A6C2A722C2A4C2A5C2A6D2A722C2A418
:0701AE00C2A5C2A6C2A722F0
:0B02470012017E74132DF8E6F59022E2
:1000E4008F1E7E007C037DE812008F7C007D0A1247
:1000F400008F7F011202477F0A7E001201C4E51EB1
:1001040075F0647F021201B5E51E75F00A7F0312D3
:1001140001B5E51E75F00A84E5F0FD7C007F04124C
:0F01240001BFE4FDFC7F051202477F0A0201C400
:10013300E4F51DF9F582F583208003751D01E51DA6
:10014300B40107308004E4F51DA32081027901B9CD
:10015300011030810DE4F974052582F582E43583BD
:10016300F583D3E5829463E583648094804005E45A
:0B017300F583F582AF821200E480BD2E
:10000F00020133E493A3F8E493A34003F68001F2D3
:10001F0008DFF48029E493A3F85407240CC8C333F2
:10002F00C4540F4420C8834004F456800146F6DFC1
:10003F00E4800B01020408102040809001EAE47E66
:10004F00019360BCA3FF543F30E509541FFEE493B6
:10005F00A360010ECF54C025E060A840B8E493A37D
:10006F00FAE493A3F8E493A3C8C582C8CAC583CAA8
:10007F00F0A3C8C582C8CAC583CADFE9DEE780BE60
:01020B0000F2
:10008F00BC000BBE0029EF8DF084FFADF022E4CC55
:10009F00F875F008EF2FFFEE33FEEC33FCEE9DEC1E
:1000AF00984005FCEE9DFE0FD5F0E9E4CEFD22ED64
:1000BF00F8F5F0EE8420D21CFEADF075F008EF2FAE
:1000CF00FFED33FD4007985006D5F0F222C398FD9F
:0500DF000FD5F0EA223C
:00000001FF
