:100A36000210000A021200140826FEFDFBF7EFDF83
:100A4600BF7F0C14C0F9A4B0999282F880908CC133
:100A5600010801010901010A01010B01022200003E
:040A66000224000066
:100A6B0020B005E4F508800FE508700B750801E56B
:100A7B001115117002151020B104E4F50922E509D6
:0E0A8B00700B7509010511E5117002051022AE
:070A9900120AFF7F0A7E0034
:100AA000E4FDFCC3ED9FEE6480F8EC648098501583
:100AB000E4FAFB0BBB00010AEB64644A70F50DBD60
:050AC00000010C80DEC6
:010AC500220E
:1009FF00EF24FE601114601414601A146020240494
:100A0F007024D290801AC290D2918016C290C29157
:100A1F00D292C29322C290C291C292D29322C2901A
:070A2F00C291C292C29322A2
:0B0AFF001209FF74142DF8E6F58022A8
:100961008F828E837C037DE812090CAC06AD077F74
:1009710001120A997C007D64AF82AE8312090C7C5E
:10098100007D0A12090C7F02120A997C007D0AAFD0
:1009910082AE8312090C7C007D0A12090C7F0312BE
:1009A1000A99AE83AF827C007D0A12090C7F041282
:0F09B1000A99E4FDFC7F05120AFF7F0A020AA0E3
:100AEF00758911758CFC758A17D28CD2A9D2AF2259
:03000B000209C027
:1009C000C0E0C0D0758CFC758A170523E523700242
:1009D0000522B5110DE522B510087522007523001A
:1009E000B2A00525E52570020524B5130DE524B553
:0F09F0001208752400752500B2A1D0D0D0E032D6
:070B0A00D288D2AFD2A8226D
:03000300020AC628
:100AC600C0E0C0D074FB2513F51374FF3512F51280
:050AD600D0D0D0E03299
:070B1100D28AD2AFD2AA2262
:03001300020ADB03
:100ADB00C0E0C0D074052513F513E43512F512D020
:040AEB00D0D0E03255
:10088C00120B0A120B11120AEFD3E50D9463E50C4F
:10089C0064809480400675100075110AD3E50F949E
:1008AC0063E50E648094804006751200751314ACD9
:1008BC0010AD117E017FF412090C8E0C8F0DAC1251
:1008CC00AD137E017FF412090C8E0E8F0FAE0CAFA0
:1008DC000D7C007D641208FAE50F2FF521E50E3E24
:0E08EC00F520120A6BAF21AE20120961809B2D
:03000000020800F3
:0C080000787FE4F6D8FD75812D020847D2
:1008FA00EF8DF0A4A8F0CF8CF0A428CE8DF0A42E12
:02090A00FE22CB
:10090C00BC000BBE0029EF8DF084FFADF022E4CCCF
:10091C00F875F008EF2FFFEE33FEEC33FCEE9DEC98
:10092C00984005FCEE9DFE0FD5F0E9E4CEFD22EDDE
:10093C00F8F5F0EE8420D21CFEADF075F008EF2F28
:10094C00FFED33FD4007985006D5F0F222C398FD19
:05095C000FD5F0EA22B6
:10080C0002088CE493A3F8E493A34003F68001F26E
:10081C0008DFF48029E493A3F85407240CC8C333ED
:10082C00C4540F4420C8834004F456800146F6DFBC
:10083C00E4800B0102040810204080900A36E47E0C
:10084C00019360BCA3FF543F30E509541FFEE493B1
:10085C00A360010ECF54C025E060A840B8E493A378
:10086C00FAE493A3F8E493A3C8C582C8CAC583CAA3
:10087C00F0A3C8C582C8CAC583CADFE9DEE780BE5B
:010A6A00008B
:00000001FF
