:1009C900021200000308000000011401020B0000DC
:0809D900020D0000020F0000F6
:1008000030902CE4F514F50BF50CE511D394005061
:10081000030208A30510E5107002050FD394FAE552
:100820000F64809480407CE4F50FF510F51122E50B
:1008300014703A050CE50C7002050BD39464E50BBB
:1008400064809480405DE4F50BF50CF50FF51075B0
:1008500014010511E511B401090513E51370020532
:100860001222E511B4023CE4F512F51322C3E50CA3
:1008700094E8E50B648094835009050CE50C700244
:10088000050B22050EE50E7002050DD394FAE50D59
:1008900064809480400DE4F50DF50E0513E51370AA
:0408A0000205122219
:10098D008F16E51675F00A84ADF07F01120960E54A
:10099D001675F00A8475F00A84ADF07F02020960C5
:100930001209AD7F027E001209E2E4F515E5150407
:10094000FF7D0A1209600515E515C3940840EE7F86
:10095000E87E031209E2120800AF1312098D80F637
:10096000C2A1E4FEC2A2EF25E0FF92A0D2A2000045
:10097000C2A20EBE08EEE4FEC2A2ED25E0FD92A0EA
:0C098000D2A20000C2A20EBE08EED2A15E
:01098C002248
:1009AD007DFF7F091209607D077F0A1209607D07AF
:0C09BD007F0B1209607D017F0C020960B5
:1009E200EF1FAA0670011E4A600BE4FDEDC3947866
:0509F20050EE0D80F73E
:0109F70022DD
:030000000208A44F
:0C08A400787FE4F6D8FD7581160208EBA1
:1008B000020930E493A3F8E493A34003F68001F225
:1008C00008DFF48029E493A3F85407240CC8C33349
:1008D000C4540F4420C8834004F456800146F6DF18
:1008E000E4800B01020408102040809009C9E47ED6
:1008F000019360BCA3FF543F30E509541FFEE4930D
:10090000A360010ECF54C025E060A840B8E493A3D3
:10091000FAE493A3F8E493A3C8C582C8CAC583CAFE
:10092000F0A3C8C582C8CAC583CADFE9DEE780BEB6
:0109E1000015
:00000001FF
