:1009AD000228003C0820FEFDFBF7EFDFBF7F0C0C9B
:1009BD00C0F9A4B0999282F880908CC10108010110
:1009CD000901010A01010B0102180000021A0000C1
:0809DD00021C0000021E0000D4
:100A4A0020B204E4F50822E5087005750801B28CA5
:010A5A002279
:070A1D00120A6B7F0A7E0044
:100A2400E4FDFCC3ED9FEE6480F8EC6480985015FF
:100A3400E4FAFB0BBB00010AEB64644A70F50DBDDC
:050A440000010C80DE42
:010A4900228A
:1009E600EF24FE601114601414601A1460202404AD
:1009F6007024D290801AC290D2918016C290C29171
:100A0600D292C29322C290C291C292D29322C29033
:070A1600C291C292C29322BB
:0B0A6B001209E6740C2DF8E6F580225D
:1008F900AE28AF297C037DE8120958AC06AD077F05
:1009090001120A1DAE28AF297C007D641209587CAA
:10091900007D0A1209587F02120A1DAE28AF297CF0
:10092900007D0A1209587C007D0A1209587F0312BA
:100939000A1DAE28AF297C007D0A1209587F0412CE
:0F0949000A1DE4FDFC7F05120A6B7F0A020A24D7
:100A5B00758911758CFC758A17D28CD2A9D2AF22ED
:03000B0002088C5C
:10088C00C0E0758CD8758AEF0519E519700205184A
:10089C00051DE51D7002051C051FE51F7002051ED8
:1008AC00E519643245187006F518F519B2A0051B48
:1008BC00E51B7002051A6464451A7006F51AF51BDF
:1008CC00B2A1051DE51D7002051C6496451C700641
:1008DC00F51CF51DB2A2051FE51F7002051E64C8AC
:0D08EC00451E7006F51EF51FB2A3D0E032C8
:0B0A7600120A5B120A4A1208F980F80D
:03000000020800F3
:0C080000787FE4F6D8FD758129020847D6
:10095800BC000BBE0029EF8DF084FFADF022E4CC83
:10096800F875F008EF2FFFEE33FEEC33FCEE9DEC4C
:10097800984005FCEE9DFE0FD5F0E9E4CEFD22ED92
:10098800F8F5F0EE8420D21CFEADF075F008EF2FDC
:10099800FFED33FD4007985006D5F0F222C398FDCD
:0509A8000FD5F0EA226A
:10080C00020A76E493A3F8E493A34003F68001F282
:10081C0008DFF48029E493A3F85407240CC8C333ED
:10082C00C4540F4420C8834004F456800146F6DFBC
:10083C00E4800B01020408102040809009ADE47E96
:10084C00019360BCA3FF543F30E509541FFEE493B1
:10085C00A360010ECF54C025E060A840B8E493A378
:10086C00FAE493A3F8E493A3C8C582C8CAC583CAA3
:10087C00F0A3C8C582C8CAC583CADFE9DEE780BE5B
:0109E5000011
:00000001FF
