:100800007508037509E8750C00750D01E4F51075A0
:100810000A07750BD0F50E750F01F511120876E574
:1008200010600BE4F510B2807508037509E8E51156
:0F08300060EDE4F511B282750A07750BD080E018
:100876005389F0438901758A18758CFCC28DD2A9FB
:05088600D2AFD28C226C
:03000B0002083FA9
:10083F00C0E0C28CE50D450C6022E5091509700278
:10084F001508E50B150B7002150AE509450870032D
:10085F00751001E50B450A7003751101758A18753E
:07086F008CFCD28CD0E032BA
:0300000002088B68
:0C088B00787FE4F6D8FD758111020800AA
:00000001FF
