:1009A500020F00000308000000011101020B000006
:0409B500020D00002F
:10088C00309008E4F511F50BF50C22E511702405F8
:10089C000CE50C7002050BD39464E50B648094801A
:1008AC004047E4F50BF50C7511010510E510703996
:1008BC00050F22C3E50C94E8E50B64809483500982
:1008CC00050CE50C7023050B22050EE50E700205D8
:1008DC000DD394FAE50D64809480400DE4F50DF58C
:0A08EC000E0510E5107002050F2242
:100953008F13E51375F00A84ADF07F01120926E5C4
:100963001375F00A8475F00A84ADF07F020209263C
:1008F6001209737F027E0012098FE4F512E51204D5
:10090600FF7D0A1209260512E512C3940840EE7F00
:10091600E87E0312098F12088CAF1012095380F675
:10092600C2A1E4FEC2A2EF25E0FF92A0D2A200007F
:10093600C2A20EBE08EEE4FEC2A2ED25E0FD92A024
:0C094600D2A20000C2A20EBE08EED2A198
:010952002282
:100973007DFF7F091209267D077F0A1209267D075D
:0C0983007F0B1209267D017F0C02092663
:10098F00EF1FAA0670011E4A600BE4FDEDC39478B9
:05099F0050EE0D80F791
:0109A4002230
:03000000020800F3
:0C080000787FE4F6D8FD758113020847EC
:10080C000208F6E493A3F8E493A34003F68001F204
:10081C0008DFF48029E493A3F85407240CC8C333ED
:10082C00C4540F4420C8834004F456800146F6DFBC
:10083C00E4800B01020408102040809009A5E47E9E
:10084C00019360BCA3FF543F30E509541FFEE493B1
:10085C00A360010ECF54C025E060A840B8E493A378
:10086C00FAE493A3F8E493A3C8C582C8CAC583CAA3
:10087C00F0A3C8C582C8CAC583CADFE9DEE780BE5B
:0109B900003D
:00000001FF
