:03000000020800F3
:0C080000787FE4F6D8FD758114020847EB
:1008CF00021100000908FFFEFDFBF7EFDFBF7F01FC
:0508DF001300011400EC
:10088C00C2A4D2A7D2A6D2A5D2A3D2A2D2A1D2A0C0
:10089C0020A00830A0FD751401801F20A10830A1F4
:1008AC00FD751402801420A20830A2FD751403807B
:1008BC000920A30E30A3FD75140474082514F8E662
:0308CC00F5802292
:0508E50012088C80FBED
:10080C000208E5E493A3F8E493A34003F68001F215
:10081C0008DFF48029E493A3F85407240CC8C333ED
:10082C00C4540F4420C8834004F456800146F6DFBC
:10083C00E4800B01020408102040809008CFE47E75
:10084C00019360BCA3FF543F30E509541FFEE493B1
:10085C00A360010ECF54C025E060A840B8E493A378
:10086C00FAE493A3F8E493A3C8C582C8CAC583CAA3
:10087C00F0A3C8C582C8CAC583CADFE9DEE780BE5B
:0108E4000013
:00000001FF
