:08094700010C00030800000090
:1008E900309006750B01E4F50DE50BB4011D209060
:1008F9001A050DD3E50D648094E4400FE4F50D0568
:0C0909000CF50BE50CB40A03E4F50C221D
:07095000AD077F080208BC9F
:10088C001209157F027E00120931E4F50EE50E0403
:10089C00FF7D0A1208BC050EE50EC3940840EE7FDE
:1008AC00E87E031209311208E9AF0C12095080F6E8
:1008BC00C2A1E4FEC2A2EF25E0FF92A0D2A20000EA
:1008CC00C2A20EBE08EEE4FEC2A2ED25E0FD92A08F
:0C08DC00D2A20000C2A20EBE08EED2A103
:0108E80022ED
:100915007DFF7F091208BC7D077F0A1208BC7D0791
:0C0925007F0B1208BC7D017F0C0208BC97
:10093100EF1FAA0670011E4A600BE4FDEDC3947817
:0509410050EE0D80F7EF
:01094600228E
:03000000020800F3
:0C080000787FE4F6D8FD75810E020847F1
:10080C0002088CE493A3F8E493A34003F68001F26E
:10081C0008DFF48029E493A3F85407240CC8C333ED
:10082C00C4540F4420C8834004F456800146F6DFBC
:10083C00E4800B0102040810204080900947E47EFC
:10084C00019360BCA3FF543F30E509541FFEE493B1
:10085C00A360010ECF54C025E060A840B8E493A378
:10086C00FAE493A3F8E493A3C8C582C8CAC583CAA3
:10087C00F0A3C8C582C8CAC583CADFE9DEE780BE5B
:01094F0000A7
:00000001FF
