:10099C00021E00000816FEFDFBF7EFDFBF7F0A0A00
:1009AC00C0F9A4B0999282F8809001080001090066
:0609BC000114000115000A
:1009710020B203750801E508B4010A30B207E4F5B5
:1009810008C2A0D2A120B303750901E509B4010A87
:0B09910030B207E4F509C2A1D2A02299
:1009C300E4FDFCC3ED9FEE6480F8EC648098501561
:1009D300E4FAFB0BBB00010AEB64644A70F50DBD3E
:0509E30000010C80DEA4
:0109E80022EC
:10093A00EF24FE601114601414601A146020240459
:10094A007024D290801AC290D2918016C290C2911D
:10095A00D292C29322C290C291C292D29322C290E0
:07096A00C291C292C2932268
:0B0A1A0012093A740A2DF8E6F580225C
:10088C00AE1EAF1F7C037DE81208E5AC06AD077FFA
:10089C0001120A1AAE1EAF1F7C007D641208E57CA3
:1008AC00007D0A1208E57F02120A1AAE1EAF1F7CE9
:1008BC00007D0A1208E57C007D0A1208E57F031210
:1008CC000A1AAE1EAF1F7C007D0A1208E57F0412C7
:0908DC000A1AE4FDFC0F020A1ADD
:1009E9005389F0438901758A30758CF8C28DD2A973
:0509F900D2AFD28C22F8
:03000B00020A25C1
:0B0A2500C28C758A18758CFCD28C32D4
:070A3800D288D2AFD2A82240
:070A3F00D28AD2AFD2AA2235
:030003000209FEF1
:0E09FE00C0E0E5157005751401C2A0D0E0320E
:03001300020A0CD2
:0E0A0C00C0E0E5147005751501C2A1D0E032FE
:080A3000120A38120A3F80FE91
:03000000020800F3
:0C080000787FE4F6D8FD75811F020847E0
:1008E500BC000BBE0029EF8DF084FFADF022E4CCF7
:1008F500F875F008EF2FFFEE33FEEC33FCEE9DECC0
:10090500984005FCEE9DFE0FD5F0E9E4CEFD22ED05
:10091500F8F5F0EE8420D21CFEADF075F008EF2F4F
:10092500FFED33FD4007985006D5F0F222C398FD40
:050935000FD5F0EA22DD
:10080C00020A30E493A3F8E493A34003F68001F2C8
:10081C0008DFF48029E493A3F85407240CC8C333ED
:10082C00C4540F4420C8834004F456800146F6DFBC
:10083C00E4800B010204081020408090099CE47EA7
:10084C00019360BCA3FF543F30E509541FFEE493B1
:10085C00A360010ECF54C025E060A840B8E493A378
:10086C00FAE493A3F8E493A3C8C582C8CAC583CAA3
:10087C00F0A3C8C582C8CAC583CADFE9DEE780BE5B
:0109C2000034
:00000001FF
