:0609C100010C00010D0015
:1009A2007508037509E8C200750A03750BE8C201F0
:0109B2002222
:10088C00E50C146020146033146046240370571078
:10089C000001227508037509E8C280D281D282D288
:1008AC0083750C0122100001227508037509E8D22A
:1008BC0080C281D282D283750C0222100001227573
:1008CC0008037509E8D280D281C282D283750C03E9
:1008DC0022100001227508037509E8D280D281D25A
:0608EC0082C283E4F50C5A
:0108F20022E3
:1008F300E50D146020146033146046240370571010
:10090300010122750A03750BE8D284D285D286C20F
:1009130087750D012210010122750A03750BE8D2B8
:1009230084D285C286D287750D02221001012275F9
:100933000A03750BE8D284C285D286D287750D036C
:100943002210010122750A03750BE8C284D285D2F5
:0609530086D287E4F50DD9
:01095900227B
:10098D005389F0438901758A18758CFCC28DD2A9E3
:05099D00D2AFD28C2254
:03000B0002095A8D
:10095A00C0E0C28CE5006020E5091509700215089F
:10096A00E50B150B7002150AE50945087002D2005D
:10097A00E50B450A7002D201758A18758CFCD28C77
:03098A00D0E03288
:0E09B3001209A212098D12088C1208F380F8A6
:03000000020800F3
:0C080000787FE4F6D8FD758120020847DF
:10080C000209B3E493A3F8E493A34003F68001F246
:10081C0008DFF48029E493A3F85407240CC8C333ED
:10082C00C4540F4420C8834004F456800146F6DFBC
:10083C00E4800B01020408102040809009C1E47E82
:10084C00019360BCA3FF543F30E509541FFEE493B1
:10085C00A360010ECF54C025E060A840B8E493A378
:10086C00FAE493A3F8E493A3C8C582C8CAC583CAA3
:10087C00F0A3C8C582C8CAC583CADFE9DEE780BE5B
:0109C700002F
:00000001FF
