:0E0A0400010D000308000000010E01010F01AA
:1008E100309007E4F50EF50B8021E50E701D050B28
:1008F100D3E50B648094E44012E4F50B2091077575
:100901000E01F50D150D750E01050D309106E4F57D
:100911000FF50C22E50F7013050CD3E50C648094E0
:0C092100E44008E4F50C750F01150D22F0
:10092D008F11E51175F00A84ADF07F011209A5E56F
:10093D001175F00A8475F00A84ADF07F021209A5D5
:10094D00E51175F0648475F00A84ADF07F0312092A
:10095D00A5AF117E007C037DE812088C7C007D0A1A
:08096D0012088C7F040209A5A9
:100975001209D27F027E001209EEE4F510E510049B
:10098500FF7D0A1209A50510E510C3940840EE7F06
:10099500E87E031209EE1208E1AF0D12092D80F66B
:1009A500C2A1E4FEC2A2EF25E0FF92A0D2A2000000
:1009B500C2A20EBE08EEE4FEC2A2ED25E0FD92A0A5
:0C09C500D2A20000C2A20EBE08EED2A119
:0109D1002203
:1009D2007DFF7F091209A57D077F0A1209A57D0700
:0C09E2007F0B1209A57D017F0C0209A506
:1009EE00EF1FAA0670011E4A600BE4FDEDC394785A
:0509FE0050EE0D80F732
:010A030022D0
:03000000020800F3
:0C080000787FE4F6D8FD758111020847EE
:10088C00BC000BBE0029EF8DF084FFADF022E4CC50
:10089C00F875F008EF2FFFEE33FEEC33FCEE9DEC19
:1008AC00984005FCEE9DFE0FD5F0E9E4CEFD22ED5F
:1008BC00F8F5F0EE8420D21CFEADF075F008EF2FA9
:1008CC00FFED33FD4007985006D5F0F222C398FD9A
:0508DC000FD5F0EA2237
:10080C00020975E493A3F8E493A34003F68001F284
:10081C0008DFF48029E493A3F85407240CC8C333ED
:10082C00C4540F4420C8834004F456800146F6DFBC
:10083C00E4800B0102040810204080900A04E47E3E
:10084C00019360BCA3FF543F30E509541FFEE493B1
:10085C00A360010ECF54C025E060A840B8E493A378
:10086C00FAE493A3F8E493A3C8C582C8CAC583CAA3
:10087C00F0A3C8C582C8CAC583CADFE9DEE780BE5B
:010A120000E3
:00000001FF
