:03000000020800F3
:0C080000787FE4F6D8FD75810B020847F4
:0E09E00068616C6C6F20776F7264210D0A00E5
:0309FF00010B00E9
:10094800EF603224FB601314601914601F240370D5
:1009580027E5A0541F4480F5A022E5A0541F44A019
:10096800F5A022E5A0541F44C0F5A022E5A0541F1D
:0909780044E0F5A02253A01F2267
:1009D0007F05120948E4F5801F1209487580FF223F
:1009A600758920758DFD758BFDD28E759850E4F591
:0609B6008ED2ACD2AF228C
:030023000209EEE1
:0909EE0030980585990BC298327E
:0809F7008F993099FDC299228D
:100981008B088A09890AAB08AA09A90A1209096010
:1009910013050AE50A7002050914F9120909FF1283
:0509A10009F780E222CD
:10088C00E50B607812092208C7A108CFA208D7A3EC
:10089C0008DFA408E7A508EFA608F7A708FFA80833
:1008AC00CBB108D3B208DBB308E3B408EBB508F35B
:1008BC00B608FBB70903B800000908C280803AD219
:1008CC00808036C2818032D281802EC282802AD230
:1008DC00828026C2838022D283801EC284801AD258
:1008EC00848016C2858012D285800EC286800AD280
:0D08FC00868006C2878002D287E4F50B22B9
:1009BC001209A61209D07BFF7A0979E0120981127B
:0409CC00088C80FB18
:10080C000209BCE493A3F8E493A34003F68001F23D
:10081C0008DFF48029E493A3F85407240CC8C333ED
:10082C00C4540F4420C8834004F456800146F6DFBC
:10083C00E4800B01020408102040809009FFE47E44
:10084C00019360BCA3FF543F30E509541FFEE493B1
:10085C00A360010ECF54C025E060A840B8E493A378
:10086C00FAE493A3F8E493A3C8C582C8CAC583CAA3
:10087C00F0A3C8C582C8CAC583CADFE9DEE780BE5B
:010A020000F3
:10090900BB010689828A83E0225002E722BBFE02EC
:09091900E32289828A83E493221F
:10092200D083D082F8E4937012740193700DA3A364
:1009320093F8740193F5828883E473740293686078
:06094200EFA3A3A380DF78
:00000001FF
