:100A4300020C0000021C0000081EFEFDFBF7EFDF96
:100A5300BF7F0D0FC0F9A4B0999282F880908CC12A
:100A63008C010801010901010A01010B01010E00BA
:10090F0020A005E4F5088020E508701C750801E5B6
:10091F000D450C7007F50C750D01800CE50D64018C
:10092F00450C7004F50CF50D20A105E4F5098009BF
:10093F00E5097005750901B28CE50D6401450C7070
:10094F003320A204F50A8012E50A700E750A0174AD
:10095F0005251DF51DE4351CF51C20A304E4F50B3E
:10096F0022E50B700F750B0174FB251DF51D74FF30
:05097F00351CF51C22EF
:10088C00FC7F01120AB37F0A7E001208E9AE1CAF8E
:10089C001D7C007D641209847C007D0A1209847F12
:1008AC0002120AB37F0A7E001208E9AE1CAF1D7C4F
:1008BC00007D0A1209847C007D0A1209847F0312D0
:1008CC000AB37F0A7E001208E9AE1CAF1D7C007DC6
:0D08DC000A1209847F04120AB37F0A7E000D
:1008E900E4FDFCC3ED9FEE6480F8EC64809850153C
:1008F900E4FAFB0BBB00010AEB64644A70F50DBD19
:0509090000010C80DE7E
:01090E0022C6
:1009D900EF24FE601114601414601A1460202404BA
:1009E9007024D290801AC290D2918016C290C2917E
:1009F900D292C29322C290C291C292D29322C29041
:070A0900C291C292C29322C8
:0B0AB3001209D9740F2DF8E6F580221F
:100A1000E50D450C70127D0B12088CE4FDFC7F0582
:100A2000120AB37F0A1208E9E50D6401450C701241
:100A30007D0C12088CE4FDFC7F05120AB37F0A12BC
:030A400008E922A0
:100AA300758901758C3C758AAFD2A9D2AFC28C22ED
:03000B00020A7472
:100A7400C0E0C0D0758C3C758AAFE50D450C701A8A
:100A8400050EE50EB41413750E00E51D151D700258
:0F0A9400151CE51D451C7002C28CD0D0D0E0327D
:0B0ABE00120AA312090F120A1080F8A0
:03000000020800F3
:0C080000787FE4F6D8FD758125020847DA
:10098400BC000BBE0029EF8DF084FFADF022E4CC57
:10099400F875F008EF2FFFEE33FEEC33FCEE9DEC20
:1009A400984005FCEE9DFE0FD5F0E9E4CEFD22ED66
:1009B400F8F5F0EE8420D21CFEADF075F008EF2FB0
:1009C400FFED33FD4007985006D5F0F222C398FDA1
:0509D4000FD5F0EA223E
:10080C00020ABEE493A3F8E493A34003F68001F23A
:10081C0008DFF48029E493A3F85407240CC8C333ED
:10082C00C4540F4420C8834004F456800146F6DFBC
:10083C00E4800B0102040810204080900A43E47EFF
:10084C00019360BCA3FF543F30E509541FFEE493B1
:10085C00A360010ECF54C025E060A840B8E493A378
:10086C00FAE493A3F8E493A3C8C582C8CAC583CAA3
:10087C00F0A3C8C582C8CAC583CADFE9DEE780BE5B
:010A73000082
:00000001FF
